{
  "_format": "hh-sol-artifact-1",
  "contractName": "NftMint",
  "sourceName": "contracts/NftMint.sol",
  "abi": [
    {
      "inputs": [
        {
          "internalType": "string",
          "name": "name",
          "type": "string"
        },
        {
          "internalType": "string",
          "name": "symbol",
          "type": "string"
        }
      ],
      "stateMutability": "nonpayable",
      "type": "constructor"
    },
    {
      "anonymous": false,
      "inputs": [
        {
          "indexed": true,
          "internalType": "address",
          "name": "owner",
          "type": "address"
        },
        {
          "indexed": true,
          "internalType": "address",
          "name": "approved",
          "type": "address"
        },
        {
          "indexed": true,
          "internalType": "uint256",
          "name": "tokenId",
          "type": "uint256"
        }
      ],
      "name": "Approval",
      "type": "event"
    },
    {
      "anonymous": false,
      "inputs": [
        {
          "indexed": true,
          "internalType": "address",
          "name": "owner",
          "type": "address"
        },
        {
          "indexed": true,
          "internalType": "address",
          "name": "operator",
          "type": "address"
        },
        {
          "indexed": false,
          "internalType": "bool",
          "name": "approved",
          "type": "bool"
        }
      ],
      "name": "ApprovalForAll",
      "type": "event"
    },
    {
      "anonymous": false,
      "inputs": [
        {
          "indexed": true,
          "internalType": "address",
          "name": "previousOwner",
          "type": "address"
        },
        {
          "indexed": true,
          "internalType": "address",
          "name": "newOwner",
          "type": "address"
        }
      ],
      "name": "OwnershipTransferred",
      "type": "event"
    },
    {
      "anonymous": false,
      "inputs": [
        {
          "indexed": true,
          "internalType": "address",
          "name": "from",
          "type": "address"
        },
        {
          "indexed": true,
          "internalType": "address",
          "name": "to",
          "type": "address"
        },
        {
          "indexed": true,
          "internalType": "uint256",
          "name": "tokenId",
          "type": "uint256"
        }
      ],
      "name": "Transfer",
      "type": "event"
    },
    {
      "inputs": [
        {
          "internalType": "address",
          "name": "to",
          "type": "address"
        },
        {
          "internalType": "uint256",
          "name": "tokenId",
          "type": "uint256"
        }
      ],
      "name": "approve",
      "outputs": [],
      "stateMutability": "nonpayable",
      "type": "function"
    },
    {
      "inputs": [
        {
          "internalType": "address",
          "name": "owner",
          "type": "address"
        }
      ],
      "name": "balanceOf",
      "outputs": [
        {
          "internalType": "uint256",
          "name": "",
          "type": "uint256"
        }
      ],
      "stateMutability": "view",
      "type": "function"
    },
    {
      "inputs": [
        {
          "internalType": "uint256",
          "name": "tokenId",
          "type": "uint256"
        }
      ],
      "name": "getApproved",
      "outputs": [
        {
          "internalType": "address",
          "name": "",
          "type": "address"
        }
      ],
      "stateMutability": "view",
      "type": "function"
    },
    {
      "inputs": [
        {
          "internalType": "address",
          "name": "owner",
          "type": "address"
        },
        {
          "internalType": "address",
          "name": "operator",
          "type": "address"
        }
      ],
      "name": "isApprovedForAll",
      "outputs": [
        {
          "internalType": "bool",
          "name": "",
          "type": "bool"
        }
      ],
      "stateMutability": "view",
      "type": "function"
    },
    {
      "inputs": [
        {
          "internalType": "uint256",
          "name": "numberOfMints",
          "type": "uint256"
        }
      ],
      "name": "mint",
      "outputs": [],
      "stateMutability": "payable",
      "type": "function"
    },
    {
      "inputs": [],
      "name": "name",
      "outputs": [
        {
          "internalType": "string",
          "name": "",
          "type": "string"
        }
      ],
      "stateMutability": "view",
      "type": "function"
    },
    {
      "inputs": [],
      "name": "owner",
      "outputs": [
        {
          "internalType": "address",
          "name": "",
          "type": "address"
        }
      ],
      "stateMutability": "view",
      "type": "function"
    },
    {
      "inputs": [
        {
          "internalType": "uint256",
          "name": "tokenId",
          "type": "uint256"
        }
      ],
      "name": "ownerOf",
      "outputs": [
        {
          "internalType": "address",
          "name": "",
          "type": "address"
        }
      ],
      "stateMutability": "view",
      "type": "function"
    },
    {
      "inputs": [],
      "name": "renounceOwnership",
      "outputs": [],
      "stateMutability": "nonpayable",
      "type": "function"
    },
    {
      "inputs": [
        {
          "internalType": "address",
          "name": "from",
          "type": "address"
        },
        {
          "internalType": "address",
          "name": "to",
          "type": "address"
        },
        {
          "internalType": "uint256",
          "name": "tokenId",
          "type": "uint256"
        }
      ],
      "name": "safeTransferFrom",
      "outputs": [],
      "stateMutability": "nonpayable",
      "type": "function"
    },
    {
      "inputs": [
        {
          "internalType": "address",
          "name": "from",
          "type": "address"
        },
        {
          "internalType": "address",
          "name": "to",
          "type": "address"
        },
        {
          "internalType": "uint256",
          "name": "tokenId",
          "type": "uint256"
        },
        {
          "internalType": "bytes",
          "name": "_data",
          "type": "bytes"
        }
      ],
      "name": "safeTransferFrom",
      "outputs": [],
      "stateMutability": "nonpayable",
      "type": "function"
    },
    {
      "inputs": [
        {
          "internalType": "address",
          "name": "operator",
          "type": "address"
        },
        {
          "internalType": "bool",
          "name": "approved",
          "type": "bool"
        }
      ],
      "name": "setApprovalForAll",
      "outputs": [],
      "stateMutability": "nonpayable",
      "type": "function"
    },
    {
      "inputs": [
        {
          "internalType": "bytes4",
          "name": "interfaceId",
          "type": "bytes4"
        }
      ],
      "name": "supportsInterface",
      "outputs": [
        {
          "internalType": "bool",
          "name": "",
          "type": "bool"
        }
      ],
      "stateMutability": "view",
      "type": "function"
    },
    {
      "inputs": [],
      "name": "symbol",
      "outputs": [
        {
          "internalType": "string",
          "name": "",
          "type": "string"
        }
      ],
      "stateMutability": "view",
      "type": "function"
    },
    {
      "inputs": [
        {
          "internalType": "uint256",
          "name": "index",
          "type": "uint256"
        }
      ],
      "name": "tokenByIndex",
      "outputs": [
        {
          "internalType": "uint256",
          "name": "",
          "type": "uint256"
        }
      ],
      "stateMutability": "view",
      "type": "function"
    },
    {
      "inputs": [
        {
          "internalType": "address",
          "name": "owner",
          "type": "address"
        },
        {
          "internalType": "uint256",
          "name": "index",
          "type": "uint256"
        }
      ],
      "name": "tokenOfOwnerByIndex",
      "outputs": [
        {
          "internalType": "uint256",
          "name": "",
          "type": "uint256"
        }
      ],
      "stateMutability": "view",
      "type": "function"
    },
    {
      "inputs": [
        {
          "internalType": "uint256",
          "name": "tokenId",
          "type": "uint256"
        }
      ],
      "name": "tokenURI",
      "outputs": [
        {
          "internalType": "string",
          "name": "",
          "type": "string"
        }
      ],
      "stateMutability": "view",
      "type": "function"
    },
    {
      "inputs": [],
      "name": "totalSupply",
      "outputs": [
        {
          "internalType": "uint256",
          "name": "",
          "type": "uint256"
        }
      ],
      "stateMutability": "view",
      "type": "function"
    },
    {
      "inputs": [
        {
          "internalType": "address",
          "name": "from",
          "type": "address"
        },
        {
          "internalType": "address",
          "name": "to",
          "type": "address"
        },
        {
          "internalType": "uint256",
          "name": "tokenId",
          "type": "uint256"
        }
      ],
      "name": "transferFrom",
      "outputs": [],
      "stateMutability": "nonpayable",
      "type": "function"
    },
    {
      "inputs": [
        {
          "internalType": "address",
          "name": "newOwner",
          "type": "address"
        }
      ],
      "name": "transferOwnership",
      "outputs": [],
      "stateMutability": "nonpayable",
      "type": "function"
    }
  ],
  "bytecode": "0x60806040523480156200001157600080fd5b506040516200390a3803806200390a833981810160405281019062000037919062000285565b818181600090805190602001906200005192919062000163565b5080600190805190602001906200006a92919062000163565b5050506200008d620000816200009560201b60201c565b6200009d60201b60201c565b505062000468565b600033905090565b6000600a60009054906101000a900473ffffffffffffffffffffffffffffffffffffffff16905081600a60006101000a81548173ffffffffffffffffffffffffffffffffffffffff021916908373ffffffffffffffffffffffffffffffffffffffff1602179055508173ffffffffffffffffffffffffffffffffffffffff168173ffffffffffffffffffffffffffffffffffffffff167f8be0079c531659141344cd1fd0a4f28419497f9722a3daafe3b4186f6b6457e060405160405180910390a35050565b82805462000171906200038d565b90600052602060002090601f016020900481019282620001955760008555620001e1565b82601f10620001b057805160ff1916838001178555620001e1565b82800160010185558215620001e1579182015b82811115620001e0578251825591602001919060010190620001c3565b5b509050620001f09190620001f4565b5090565b5b808211156200020f576000816000905550600101620001f5565b5090565b60006200022a620002248462000321565b620002f8565b9050828152602081018484840111156200024357600080fd5b6200025084828562000357565b509392505050565b600082601f8301126200026a57600080fd5b81516200027c84826020860162000213565b91505092915050565b600080604083850312156200029957600080fd5b600083015167ffffffffffffffff811115620002b457600080fd5b620002c28582860162000258565b925050602083015167ffffffffffffffff811115620002e057600080fd5b620002ee8582860162000258565b9150509250929050565b60006200030462000317565b9050620003128282620003c3565b919050565b6000604051905090565b600067ffffffffffffffff8211156200033f576200033e62000428565b5b6200034a8262000457565b9050602081019050919050565b60005b83811015620003775780820151818401526020810190506200035a565b8381111562000387576000848401525b50505050565b60006002820490506001821680620003a657607f821691505b60208210811415620003bd57620003bc620003f9565b5b50919050565b620003ce8262000457565b810181811067ffffffffffffffff82111715620003f057620003ef62000428565b5b80604052505050565b7f4e487b7100000000000000000000000000000000000000000000000000000000600052602260045260246000fd5b7f4e487b7100000000000000000000000000000000000000000000000000000000600052604160045260246000fd5b6000601f19601f8301169050919050565b61349280620004786000396000f3fe60806040526004361061011f5760003560e01c806370a08231116100a0578063a22cb46511610064578063a22cb465146103ec578063b88d4fde14610415578063c87b56dd1461043e578063e985e9c51461047b578063f2fde38b146104b85761011f565b806370a0823114610326578063715018a6146103635780638da5cb5b1461037a57806395d89b41146103a5578063a0712d68146103d05761011f565b806323b872dd116100e757806323b872dd1461021d5780632f745c591461024657806342842e0e146102835780634f6ccce7146102ac5780636352211e146102e95761011f565b806301ffc9a71461012457806306fdde0314610161578063081812fc1461018c578063095ea7b3146101c957806318160ddd146101f2575b600080fd5b34801561013057600080fd5b5061014b60048036038101906101469190612472565b6104e1565b60405161015891906128be565b60405180910390f35b34801561016d57600080fd5b5061017661055b565b60405161018391906128d9565b60405180910390f35b34801561019857600080fd5b506101b360048036038101906101ae91906124c4565b6105ed565b6040516101c09190612857565b60405180910390f35b3480156101d557600080fd5b506101f060048036038101906101eb9190612436565b610672565b005b3480156101fe57600080fd5b5061020761078a565b6040516102149190612b3b565b60405180910390f35b34801561022957600080fd5b50610244600480360381019061023f9190612330565b610797565b005b34801561025257600080fd5b5061026d60048036038101906102689190612436565b6107f7565b60405161027a9190612b3b565b60405180910390f35b34801561028f57600080fd5b506102aa60048036038101906102a59190612330565b61089c565b005b3480156102b857600080fd5b506102d360048036038101906102ce91906124c4565b6108bc565b6040516102e09190612b3b565b60405180910390f35b3480156102f557600080fd5b50610310600480360381019061030b91906124c4565b610953565b60405161031d9190612857565b60405180910390f35b34801561033257600080fd5b5061034d600480360381019061034891906122cb565b610a05565b60405161035a9190612b3b565b60405180910390f35b34801561036f57600080fd5b50610378610abd565b005b34801561038657600080fd5b5061038f610b45565b60405161039c9190612857565b60405180910390f35b3480156103b157600080fd5b506103ba610b6f565b6040516103c791906128d9565b60405180910390f35b6103ea60048036038101906103e591906124c4565b610c01565b005b3480156103f857600080fd5b50610413600480360381019061040e91906123fa565b610c9b565b005b34801561042157600080fd5b5061043c6004803603810190610437919061237f565b610cb1565b005b34801561044a57600080fd5b50610465600480360381019061046091906124c4565b610d13565b60405161047291906128d9565b60405180910390f35b34801561048757600080fd5b506104a2600480360381019061049d91906122f4565b610dba565b6040516104af91906128be565b60405180910390f35b3480156104c457600080fd5b506104df60048036038101906104da91906122cb565b610e4e565b005b60007f780e9d63000000000000000000000000000000000000000000000000000000007bffffffffffffffffffffffffffffffffffffffffffffffffffffffff1916827bffffffffffffffffffffffffffffffffffffffffffffffffffffffff19161480610554575061055382610f46565b5b9050919050565b60606000805461056a90612d60565b80601f016020809104026020016040519081016040528092919081815260200182805461059690612d60565b80156105e35780601f106105b8576101008083540402835291602001916105e3565b820191906000526020600020905b8154815290600101906020018083116105c657829003601f168201915b5050505050905090565b60006105f882611028565b610637576040517f08c379a000000000000000000000000000000000000000000000000000000000815260040161062e90612a7b565b60405180910390fd5b6004600083815260200190815260200160002060009054906101000a900473ffffffffffffffffffffffffffffffffffffffff169050919050565b600061067d82610953565b90508073ffffffffffffffffffffffffffffffffffffffff168373ffffffffffffffffffffffffffffffffffffffff1614156106ee576040517f08c379a00000000000000000000000000000000000000000000000000000000081526004016106e590612adb565b60405180910390fd5b8073ffffffffffffffffffffffffffffffffffffffff1661070d611094565b73ffffffffffffffffffffffffffffffffffffffff16148061073c575061073b81610736611094565b610dba565b5b61077b576040517f08c379a0000000000000000000000000000000000000000000000000000000008152600401610772906129fb565b60405180910390fd5b610785838361109c565b505050565b6000600880549050905090565b6107a86107a2611094565b82611155565b6107e7576040517f08c379a00000000000000000000000000000000000000000000000000000000081526004016107de90612afb565b60405180910390fd5b6107f2838383611233565b505050565b600061080283610a05565b8210610843576040517f08c379a000000000000000000000000000000000000000000000000000000000815260040161083a906128fb565b60405180910390fd5b600660008473ffffffffffffffffffffffffffffffffffffffff1673ffffffffffffffffffffffffffffffffffffffff168152602001908152602001600020600083815260200190815260200160002054905092915050565b6108b783838360405180602001604052806000815250610cb1565b505050565b60006108c661078a565b8210610907576040517f08c379a00000000000000000000000000000000000000000000000000000000081526004016108fe90612b1b565b60405180910390fd5b60088281548110610941577f4e487b7100000000000000000000000000000000000000000000000000000000600052603260045260246000fd5b90600052602060002001549050919050565b6000806002600084815260200190815260200160002060009054906101000a900473ffffffffffffffffffffffffffffffffffffffff169050600073ffffffffffffffffffffffffffffffffffffffff168173ffffffffffffffffffffffffffffffffffffffff1614156109fc576040517f08c379a00000000000000000000000000000000000000000000000000000000081526004016109f390612a3b565b60405180910390fd5b80915050919050565b60008073ffffffffffffffffffffffffffffffffffffffff168273ffffffffffffffffffffffffffffffffffffffff161415610a76576040517f08c379a0000000000000000000000000000000000000000000000000000000008152600401610a6d90612a1b565b60405180910390fd5b600360008373ffffffffffffffffffffffffffffffffffffffff1673ffffffffffffffffffffffffffffffffffffffff168152602001908152602001600020549050919050565b610ac5611094565b73ffffffffffffffffffffffffffffffffffffffff16610ae3610b45565b73ffffffffffffffffffffffffffffffffffffffff1614610b39576040517f08c379a0000000000000000000000000000000000000000000000000000000008152600401610b3090612a9b565b60405180910390fd5b610b43600061149a565b565b6000600a60009054906101000a900473ffffffffffffffffffffffffffffffffffffffff16905090565b606060018054610b7e90612d60565b80601f0160208091040260200160405190810160405280929190818152602001828054610baa90612d60565b8015610bf75780601f10610bcc57610100808354040283529160200191610bf7565b820191906000526020600020905b815481529060010190602001808311610bda57829003601f168201915b5050505050905090565b6000610c0b61078a565b905060005b82811015610c9657610c2e33600184610c299190612bef565b611560565b600b60003373ffffffffffffffffffffffffffffffffffffffff1673ffffffffffffffffffffffffffffffffffffffff1681526020019081526020016000206000815480929190610c7e90612dc3565b91905055508080610c8e90612dc3565b915050610c10565b505050565b610cad610ca6611094565b838361157e565b5050565b610cc2610cbc611094565b83611155565b610d01576040517f08c379a0000000000000000000000000000000000000000000000000000000008152600401610cf890612afb565b60405180910390fd5b610d0d848484846116eb565b50505050565b6060610d1e82611028565b610d5d576040517f08c379a0000000000000000000000000000000000000000000000000000000008152600401610d5490612abb565b60405180910390fd5b6000610d67611747565b90506000815111610d875760405180602001604052806000815250610db2565b80610d918461175e565b604051602001610da2929190612833565b6040516020818303038152906040525b915050919050565b6000600560008473ffffffffffffffffffffffffffffffffffffffff1673ffffffffffffffffffffffffffffffffffffffff16815260200190815260200160002060008373ffffffffffffffffffffffffffffffffffffffff1673ffffffffffffffffffffffffffffffffffffffff16815260200190815260200160002060009054906101000a900460ff16905092915050565b610e56611094565b73ffffffffffffffffffffffffffffffffffffffff16610e74610b45565b73ffffffffffffffffffffffffffffffffffffffff1614610eca576040517f08c379a0000000000000000000000000000000000000000000000000000000008152600401610ec190612a9b565b60405180910390fd5b600073ffffffffffffffffffffffffffffffffffffffff168173ffffffffffffffffffffffffffffffffffffffff161415610f3a576040517f08c379a0000000000000000000000000000000000000000000000000000000008152600401610f319061293b565b60405180910390fd5b610f438161149a565b50565b60007f80ac58cd000000000000000000000000000000000000000000000000000000007bffffffffffffffffffffffffffffffffffffffffffffffffffffffff1916827bffffffffffffffffffffffffffffffffffffffffffffffffffffffff1916148061101157507f5b5e139f000000000000000000000000000000000000000000000000000000007bffffffffffffffffffffffffffffffffffffffffffffffffffffffff1916827bffffffffffffffffffffffffffffffffffffffffffffffffffffffff1916145b8061102157506110208261190b565b5b9050919050565b60008073ffffffffffffffffffffffffffffffffffffffff166002600084815260200190815260200160002060009054906101000a900473ffffffffffffffffffffffffffffffffffffffff1673ffffffffffffffffffffffffffffffffffffffff1614159050919050565b600033905090565b816004600083815260200190815260200160002060006101000a81548173ffffffffffffffffffffffffffffffffffffffff021916908373ffffffffffffffffffffffffffffffffffffffff160217905550808273ffffffffffffffffffffffffffffffffffffffff1661110f83610953565b73ffffffffffffffffffffffffffffffffffffffff167f8c5be1e5ebec7d5bd14f71427d1e84f3dd0314c0f7b2291e5b200ac8c7c3b92560405160405180910390a45050565b600061116082611028565b61119f576040517f08c379a0000000000000000000000000000000000000000000000000000000008152600401611196906129db565b60405180910390fd5b60006111aa83610953565b90508073ffffffffffffffffffffffffffffffffffffffff168473ffffffffffffffffffffffffffffffffffffffff1614806111ec57506111eb8185610dba565b5b8061122a57508373ffffffffffffffffffffffffffffffffffffffff16611212846105ed565b73ffffffffffffffffffffffffffffffffffffffff16145b91505092915050565b8273ffffffffffffffffffffffffffffffffffffffff1661125382610953565b73ffffffffffffffffffffffffffffffffffffffff16146112a9576040517f08c379a00000000000000000000000000000000000000000000000000000000081526004016112a09061295b565b60405180910390fd5b600073ffffffffffffffffffffffffffffffffffffffff168273ffffffffffffffffffffffffffffffffffffffff161415611319576040517f08c379a00000000000000000000000000000000000000000000000000000000081526004016113109061299b565b60405180910390fd5b611324838383611975565b61132f60008261109c565b6001600360008573ffffffffffffffffffffffffffffffffffffffff1673ffffffffffffffffffffffffffffffffffffffff168152602001908152602001600020600082825461137f9190612c76565b925050819055506001600360008473ffffffffffffffffffffffffffffffffffffffff1673ffffffffffffffffffffffffffffffffffffffff16815260200190815260200160002060008282546113d69190612bef565b92505081905550816002600083815260200190815260200160002060006101000a81548173ffffffffffffffffffffffffffffffffffffffff021916908373ffffffffffffffffffffffffffffffffffffffff160217905550808273ffffffffffffffffffffffffffffffffffffffff168473ffffffffffffffffffffffffffffffffffffffff167fddf252ad1be2c89b69c2b068fc378daa952ba7f163c4a11628f55a4df523b3ef60405160405180910390a4611495838383611a89565b505050565b6000600a60009054906101000a900473ffffffffffffffffffffffffffffffffffffffff16905081600a60006101000a81548173ffffffffffffffffffffffffffffffffffffffff021916908373ffffffffffffffffffffffffffffffffffffffff1602179055508173ffffffffffffffffffffffffffffffffffffffff168173ffffffffffffffffffffffffffffffffffffffff167f8be0079c531659141344cd1fd0a4f28419497f9722a3daafe3b4186f6b6457e060405160405180910390a35050565b61157a828260405180602001604052806000815250611a8e565b5050565b8173ffffffffffffffffffffffffffffffffffffffff168373ffffffffffffffffffffffffffffffffffffffff1614156115ed576040517f08c379a00000000000000000000000000000000000000000000000000000000081526004016115e4906129bb565b60405180910390fd5b80600560008573ffffffffffffffffffffffffffffffffffffffff1673ffffffffffffffffffffffffffffffffffffffff16815260200190815260200160002060008473ffffffffffffffffffffffffffffffffffffffff1673ffffffffffffffffffffffffffffffffffffffff16815260200190815260200160002060006101000a81548160ff0219169083151502179055508173ffffffffffffffffffffffffffffffffffffffff168373ffffffffffffffffffffffffffffffffffffffff167f17307eab39ab6107e8899845ad3d59bd9653f200f220920489ca2b5937696c31836040516116de91906128be565b60405180910390a3505050565b6116f6848484611233565b61170284848484611ae9565b611741576040517f08c379a00000000000000000000000000000000000000000000000000000000081526004016117389061291b565b60405180910390fd5b50505050565b606060405180602001604052806000815250905090565b606060008214156117a6576040518060400160405280600181526020017f30000000000000000000000000000000000000000000000000000000000000008152509050611906565b600082905060005b600082146117d85780806117c190612dc3565b915050600a826117d19190612c45565b91506117ae565b60008167ffffffffffffffff81111561181a577f4e487b7100000000000000000000000000000000000000000000000000000000600052604160045260246000fd5b6040519080825280601f01601f19166020018201604052801561184c5781602001600182028036833780820191505090505b5090505b600085146118ff576001826118659190612c76565b9150600a856118749190612e0c565b60306118809190612bef565b60f81b8183815181106118bc577f4e487b7100000000000000000000000000000000000000000000000000000000600052603260045260246000fd5b60200101907effffffffffffffffffffffffffffffffffffffffffffffffffffffffffffff1916908160001a905350600a856118f89190612c45565b9450611850565b8093505050505b919050565b60007f01ffc9a7000000000000000000000000000000000000000000000000000000007bffffffffffffffffffffffffffffffffffffffffffffffffffffffff1916827bffffffffffffffffffffffffffffffffffffffffffffffffffffffff1916149050919050565b611980838383611c80565b600073ffffffffffffffffffffffffffffffffffffffff168373ffffffffffffffffffffffffffffffffffffffff1614156119c3576119be81611c85565b611a02565b8173ffffffffffffffffffffffffffffffffffffffff168373ffffffffffffffffffffffffffffffffffffffff1614611a0157611a008382611cce565b5b5b600073ffffffffffffffffffffffffffffffffffffffff168273ffffffffffffffffffffffffffffffffffffffff161415611a4557611a4081611e3b565b611a84565b8273ffffffffffffffffffffffffffffffffffffffff168273ffffffffffffffffffffffffffffffffffffffff1614611a8357611a828282611f7e565b5b5b505050565b505050565b611a988383611ffd565b611aa56000848484611ae9565b611ae4576040517f08c379a0000000000000000000000000000000000000000000000000000000008152600401611adb9061291b565b60405180910390fd5b505050565b6000611b0a8473ffffffffffffffffffffffffffffffffffffffff166121d7565b15611c73578373ffffffffffffffffffffffffffffffffffffffff1663150b7a02611b33611094565b8786866040518563ffffffff1660e01b8152600401611b559493929190612872565b602060405180830381600087803b158015611b6f57600080fd5b505af1925050508015611ba057506040513d601f19601f82011682018060405250810190611b9d919061249b565b60015b611c23573d8060008114611bd0576040519150601f19603f3d011682016040523d82523d6000602084013e611bd5565b606091505b50600081511415611c1b576040517f08c379a0000000000000000000000000000000000000000000000000000000008152600401611c129061291b565b60405180910390fd5b805181602001fd5b63150b7a0260e01b7bffffffffffffffffffffffffffffffffffffffffffffffffffffffff1916817bffffffffffffffffffffffffffffffffffffffffffffffffffffffff191614915050611c78565b600190505b949350505050565b505050565b6008805490506009600083815260200190815260200160002081905550600881908060018154018082558091505060019003906000526020600020016000909190919091505550565b60006001611cdb84610a05565b611ce59190612c76565b9050600060076000848152602001908152602001600020549050818114611dca576000600660008673ffffffffffffffffffffffffffffffffffffffff1673ffffffffffffffffffffffffffffffffffffffff168152602001908152602001600020600084815260200190815260200160002054905080600660008773ffffffffffffffffffffffffffffffffffffffff1673ffffffffffffffffffffffffffffffffffffffff168152602001908152602001600020600084815260200190815260200160002081905550816007600083815260200190815260200160002081905550505b6007600084815260200190815260200160002060009055600660008573ffffffffffffffffffffffffffffffffffffffff1673ffffffffffffffffffffffffffffffffffffffff16815260200190815260200160002060008381526020019081526020016000206000905550505050565b60006001600880549050611e4f9190612c76565b9050600060096000848152602001908152602001600020549050600060088381548110611ea5577f4e487b7100000000000000000000000000000000000000000000000000000000600052603260045260246000fd5b906000526020600020015490508060088381548110611eed577f4e487b7100000000000000000000000000000000000000000000000000000000600052603260045260246000fd5b906000526020600020018190555081600960008381526020019081526020016000208190555060096000858152602001908152602001600020600090556008805480611f62577f4e487b7100000000000000000000000000000000000000000000000000000000600052603160045260246000fd5b6001900381819060005260206000200160009055905550505050565b6000611f8983610a05565b905081600660008573ffffffffffffffffffffffffffffffffffffffff1673ffffffffffffffffffffffffffffffffffffffff168152602001908152602001600020600083815260200190815260200160002081905550806007600084815260200190815260200160002081905550505050565b600073ffffffffffffffffffffffffffffffffffffffff168273ffffffffffffffffffffffffffffffffffffffff16141561206d576040517f08c379a000000000000000000000000000000000000000000000000000000000815260040161206490612a5b565b60405180910390fd5b61207681611028565b156120b6576040517f08c379a00000000000000000000000000000000000000000000000000000000081526004016120ad9061297b565b60405180910390fd5b6120c260008383611975565b6001600360008473ffffffffffffffffffffffffffffffffffffffff1673ffffffffffffffffffffffffffffffffffffffff16815260200190815260200160002060008282546121129190612bef565b92505081905550816002600083815260200190815260200160002060006101000a81548173ffffffffffffffffffffffffffffffffffffffff021916908373ffffffffffffffffffffffffffffffffffffffff160217905550808273ffffffffffffffffffffffffffffffffffffffff16600073ffffffffffffffffffffffffffffffffffffffff167fddf252ad1be2c89b69c2b068fc378daa952ba7f163c4a11628f55a4df523b3ef60405160405180910390a46121d360008383611a89565b5050565b6000808273ffffffffffffffffffffffffffffffffffffffff163b119050919050565b600061220d61220884612b7b565b612b56565b90508281526020810184848401111561222557600080fd5b612230848285612d1e565b509392505050565b60008135905061224781613400565b92915050565b60008135905061225c81613417565b92915050565b6000813590506122718161342e565b92915050565b6000815190506122868161342e565b92915050565b600082601f83011261229d57600080fd5b81356122ad8482602086016121fa565b91505092915050565b6000813590506122c581613445565b92915050565b6000602082840312156122dd57600080fd5b60006122eb84828501612238565b91505092915050565b6000806040838503121561230757600080fd5b600061231585828601612238565b925050602061232685828601612238565b9150509250929050565b60008060006060848603121561234557600080fd5b600061235386828701612238565b935050602061236486828701612238565b9250506040612375868287016122b6565b9150509250925092565b6000806000806080858703121561239557600080fd5b60006123a387828801612238565b94505060206123b487828801612238565b93505060406123c5878288016122b6565b925050606085013567ffffffffffffffff8111156123e257600080fd5b6123ee8782880161228c565b91505092959194509250565b6000806040838503121561240d57600080fd5b600061241b85828601612238565b925050602061242c8582860161224d565b9150509250929050565b6000806040838503121561244957600080fd5b600061245785828601612238565b9250506020612468858286016122b6565b9150509250929050565b60006020828403121561248457600080fd5b600061249284828501612262565b91505092915050565b6000602082840312156124ad57600080fd5b60006124bb84828501612277565b91505092915050565b6000602082840312156124d657600080fd5b60006124e4848285016122b6565b91505092915050565b6124f681612caa565b82525050565b61250581612cbc565b82525050565b600061251682612bac565b6125208185612bc2565b9350612530818560208601612d2d565b61253981612ef9565b840191505092915050565b600061254f82612bb7565b6125598185612bd3565b9350612569818560208601612d2d565b61257281612ef9565b840191505092915050565b600061258882612bb7565b6125928185612be4565b93506125a2818560208601612d2d565b80840191505092915050565b60006125bb602b83612bd3565b91506125c682612f0a565b604082019050919050565b60006125de603283612bd3565b91506125e982612f59565b604082019050919050565b6000612601602683612bd3565b915061260c82612fa8565b604082019050919050565b6000612624602583612bd3565b915061262f82612ff7565b604082019050919050565b6000612647601c83612bd3565b915061265282613046565b602082019050919050565b600061266a602483612bd3565b91506126758261306f565b604082019050919050565b600061268d601983612bd3565b9150612698826130be565b602082019050919050565b60006126b0602c83612bd3565b91506126bb826130e7565b604082019050919050565b60006126d3603883612bd3565b91506126de82613136565b604082019050919050565b60006126f6602a83612bd3565b915061270182613185565b604082019050919050565b6000612719602983612bd3565b9150612724826131d4565b604082019050919050565b600061273c602083612bd3565b915061274782613223565b602082019050919050565b600061275f602c83612bd3565b915061276a8261324c565b604082019050919050565b6000612782602083612bd3565b915061278d8261329b565b602082019050919050565b60006127a5602f83612bd3565b91506127b0826132c4565b604082019050919050565b60006127c8602183612bd3565b91506127d382613313565b604082019050919050565b60006127eb603183612bd3565b91506127f682613362565b604082019050919050565b600061280e602c83612bd3565b9150612819826133b1565b604082019050919050565b61282d81612d14565b82525050565b600061283f828561257d565b915061284b828461257d565b91508190509392505050565b600060208201905061286c60008301846124ed565b92915050565b600060808201905061288760008301876124ed565b61289460208301866124ed565b6128a16040830185612824565b81810360608301526128b3818461250b565b905095945050505050565b60006020820190506128d360008301846124fc565b92915050565b600060208201905081810360008301526128f38184612544565b905092915050565b60006020820190508181036000830152612914816125ae565b9050919050565b60006020820190508181036000830152612934816125d1565b9050919050565b60006020820190508181036000830152612954816125f4565b9050919050565b6000602082019050818103600083015261297481612617565b9050919050565b600060208201905081810360008301526129948161263a565b9050919050565b600060208201905081810360008301526129b48161265d565b9050919050565b600060208201905081810360008301526129d481612680565b9050919050565b600060208201905081810360008301526129f4816126a3565b9050919050565b60006020820190508181036000830152612a14816126c6565b9050919050565b60006020820190508181036000830152612a34816126e9565b9050919050565b60006020820190508181036000830152612a548161270c565b9050919050565b60006020820190508181036000830152612a748161272f565b9050919050565b60006020820190508181036000830152612a9481612752565b9050919050565b60006020820190508181036000830152612ab481612775565b9050919050565b60006020820190508181036000830152612ad481612798565b9050919050565b60006020820190508181036000830152612af4816127bb565b9050919050565b60006020820190508181036000830152612b14816127de565b9050919050565b60006020820190508181036000830152612b3481612801565b9050919050565b6000602082019050612b506000830184612824565b92915050565b6000612b60612b71565b9050612b6c8282612d92565b919050565b6000604051905090565b600067ffffffffffffffff821115612b9657612b95612eca565b5b612b9f82612ef9565b9050602081019050919050565b600081519050919050565b600081519050919050565b600082825260208201905092915050565b600082825260208201905092915050565b600081905092915050565b6000612bfa82612d14565b9150612c0583612d14565b9250827fffffffffffffffffffffffffffffffffffffffffffffffffffffffffffffffff03821115612c3a57612c39612e3d565b5b828201905092915050565b6000612c5082612d14565b9150612c5b83612d14565b925082612c6b57612c6a612e6c565b5b828204905092915050565b6000612c8182612d14565b9150612c8c83612d14565b925082821015612c9f57612c9e612e3d565b5b828203905092915050565b6000612cb582612cf4565b9050919050565b60008115159050919050565b60007fffffffff0000000000000000000000000000000000000000000000000000000082169050919050565b600073ffffffffffffffffffffffffffffffffffffffff82169050919050565b6000819050919050565b82818337600083830152505050565b60005b83811015612d4b578082015181840152602081019050612d30565b83811115612d5a576000848401525b50505050565b60006002820490506001821680612d7857607f821691505b60208210811415612d8c57612d8b612e9b565b5b50919050565b612d9b82612ef9565b810181811067ffffffffffffffff82111715612dba57612db9612eca565b5b80604052505050565b6000612dce82612d14565b91507fffffffffffffffffffffffffffffffffffffffffffffffffffffffffffffffff821415612e0157612e00612e3d565b5b600182019050919050565b6000612e1782612d14565b9150612e2283612d14565b925082612e3257612e31612e6c565b5b828206905092915050565b7f4e487b7100000000000000000000000000000000000000000000000000000000600052601160045260246000fd5b7f4e487b7100000000000000000000000000000000000000000000000000000000600052601260045260246000fd5b7f4e487b7100000000000000000000000000000000000000000000000000000000600052602260045260246000fd5b7f4e487b7100000000000000000000000000000000000000000000000000000000600052604160045260246000fd5b6000601f19601f8301169050919050565b7f455243373231456e756d657261626c653a206f776e657220696e646578206f7560008201527f74206f6620626f756e6473000000000000000000000000000000000000000000602082015250565b7f4552433732313a207472616e7366657220746f206e6f6e20455243373231526560008201527f63656976657220696d706c656d656e7465720000000000000000000000000000602082015250565b7f4f776e61626c653a206e6577206f776e657220697320746865207a65726f206160008201527f6464726573730000000000000000000000000000000000000000000000000000602082015250565b7f4552433732313a207472616e736665722066726f6d20696e636f72726563742060008201527f6f776e6572000000000000000000000000000000000000000000000000000000602082015250565b7f4552433732313a20746f6b656e20616c7265616479206d696e74656400000000600082015250565b7f4552433732313a207472616e7366657220746f20746865207a65726f2061646460008201527f7265737300000000000000000000000000000000000000000000000000000000602082015250565b7f4552433732313a20617070726f766520746f2063616c6c657200000000000000600082015250565b7f4552433732313a206f70657261746f7220717565727920666f72206e6f6e657860008201527f697374656e7420746f6b656e0000000000000000000000000000000000000000602082015250565b7f4552433732313a20617070726f76652063616c6c6572206973206e6f74206f7760008201527f6e6572206e6f7220617070726f76656420666f7220616c6c0000000000000000602082015250565b7f4552433732313a2062616c616e636520717565727920666f7220746865207a6560008201527f726f206164647265737300000000000000000000000000000000000000000000602082015250565b7f4552433732313a206f776e657220717565727920666f72206e6f6e657869737460008201527f656e7420746f6b656e0000000000000000000000000000000000000000000000602082015250565b7f4552433732313a206d696e7420746f20746865207a65726f2061646472657373600082015250565b7f4552433732313a20617070726f76656420717565727920666f72206e6f6e657860008201527f697374656e7420746f6b656e0000000000000000000000000000000000000000602082015250565b7f4f776e61626c653a2063616c6c6572206973206e6f7420746865206f776e6572600082015250565b7f4552433732314d657461646174613a2055524920717565727920666f72206e6f60008201527f6e6578697374656e7420746f6b656e0000000000000000000000000000000000602082015250565b7f4552433732313a20617070726f76616c20746f2063757272656e74206f776e6560008201527f7200000000000000000000000000000000000000000000000000000000000000602082015250565b7f4552433732313a207472616e736665722063616c6c6572206973206e6f74206f60008201527f776e6572206e6f7220617070726f766564000000000000000000000000000000602082015250565b7f455243373231456e756d657261626c653a20676c6f62616c20696e646578206f60008201527f7574206f6620626f756e64730000000000000000000000000000000000000000602082015250565b61340981612caa565b811461341457600080fd5b50565b61342081612cbc565b811461342b57600080fd5b50565b61343781612cc8565b811461344257600080fd5b50565b61344e81612d14565b811461345957600080fd5b5056fea2646970667358221220809736816eb28fa7ec187befde39be3d46f5095ad1f4c4c56dac9338d14a93c664736f6c63430008040033",
  "linkReferences": {},
  "deployedLinkReferences": {}
}